{
  "contractName": "AppUser",
  "abi": [
    {
      "inputs": [],
      "payable": false,
      "stateMutability": "nonpayable",
      "type": "constructor"
    },
    {
      "constant": true,
      "inputs": [],
      "name": "ContractOwner",
      "outputs": [
        {
          "internalType": "address payable",
          "name": "",
          "type": "address"
        }
      ],
      "payable": false,
      "stateMutability": "view",
      "type": "function"
    },
    {
      "constant": true,
      "inputs": [
        {
          "internalType": "uint256",
          "name": "",
          "type": "uint256"
        }
      ],
      "name": "PD",
      "outputs": [
        {
          "internalType": "string",
          "name": "ProductName",
          "type": "string"
        },
        {
          "internalType": "string",
          "name": "ProductDescription",
          "type": "string"
        },
        {
          "internalType": "uint256",
          "name": "MonthlyRental",
          "type": "uint256"
        },
        {
          "internalType": "uint256",
          "name": "Deposit",
          "type": "uint256"
        },
        {
          "internalType": "uint256",
          "name": "ID",
          "type": "uint256"
        },
        {
          "internalType": "address payable",
          "name": "POwner",
          "type": "address"
        },
        {
          "internalType": "address payable",
          "name": "renterAddress",
          "type": "address"
        },
        {
          "internalType": "uint256",
          "name": "start_time",
          "type": "uint256"
        },
        {
          "internalType": "bool",
          "name": "status",
          "type": "bool"
        },
        {
          "internalType": "bool",
          "name": "isDelivered",
          "type": "bool"
        }
      ],
      "payable": false,
      "stateMutability": "view",
      "type": "function"
    },
    {
      "constant": true,
      "inputs": [],
      "name": "ProductID",
      "outputs": [
        {
          "internalType": "uint256",
          "name": "",
          "type": "uint256"
        }
      ],
      "payable": false,
      "stateMutability": "view",
      "type": "function"
    },
    {
      "constant": true,
      "inputs": [
        {
          "internalType": "address",
          "name": "",
          "type": "address"
        }
      ],
      "name": "UserD",
      "outputs": [
        {
          "internalType": "string",
          "name": "Name",
          "type": "string"
        },
        {
          "internalType": "string",
          "name": "Address",
          "type": "string"
        },
        {
          "internalType": "uint256",
          "name": "PhoneNumber",
          "type": "uint256"
        },
        {
          "internalType": "bool",
          "name": "kyc",
          "type": "bool"
        },
        {
          "internalType": "bool",
          "name": "Rentor",
          "type": "bool"
        },
        {
          "internalType": "bool",
          "name": "Rentee",
          "type": "bool"
        },
        {
          "internalType": "uint256",
          "name": "NoOfProducts",
          "type": "uint256"
        }
      ],
      "payable": false,
      "stateMutability": "view",
      "type": "function"
    },
    {
      "constant": false,
      "inputs": [
        {
          "components": [
            {
              "internalType": "string",
              "name": "Name",
              "type": "string"
            },
            {
              "internalType": "string",
              "name": "Address",
              "type": "string"
            },
            {
              "internalType": "uint256",
              "name": "PhoneNumber",
              "type": "uint256"
            },
            {
              "internalType": "bool",
              "name": "kyc",
              "type": "bool"
            },
            {
              "internalType": "bool",
              "name": "Rentor",
              "type": "bool"
            },
            {
              "internalType": "bool",
              "name": "Rentee",
              "type": "bool"
            },
            {
              "internalType": "uint256",
              "name": "NoOfProducts",
              "type": "uint256"
            }
          ],
          "internalType": "struct AppUser.User",
          "name": "user1",
          "type": "tuple"
        }
      ],
      "name": "Register",
      "outputs": [],
      "payable": false,
      "stateMutability": "nonpayable",
      "type": "function"
    },
    {
      "constant": false,
      "inputs": [
        {
          "components": [
            {
              "internalType": "string",
              "name": "ProductName",
              "type": "string"
            },
            {
              "internalType": "string",
              "name": "ProductDescription",
              "type": "string"
            },
            {
              "internalType": "uint256",
              "name": "MonthlyRental",
              "type": "uint256"
            },
            {
              "internalType": "uint256",
              "name": "Deposit",
              "type": "uint256"
            },
            {
              "internalType": "uint256",
              "name": "ID",
              "type": "uint256"
            },
            {
              "internalType": "address payable",
              "name": "POwner",
              "type": "address"
            },
            {
              "internalType": "address payable",
              "name": "renterAddress",
              "type": "address"
            },
            {
              "internalType": "uint256",
              "name": "start_time",
              "type": "uint256"
            },
            {
              "internalType": "bool",
              "name": "status",
              "type": "bool"
            },
            {
              "internalType": "bool",
              "name": "isDelivered",
              "type": "bool"
            }
          ],
          "internalType": "struct AppUser.Product",
          "name": "Product1",
          "type": "tuple"
        }
      ],
      "name": "AddProduct",
      "outputs": [],
      "payable": true,
      "stateMutability": "payable",
      "type": "function"
    },
    {
      "constant": false,
      "inputs": [
        {
          "internalType": "uint256",
          "name": "pid",
          "type": "uint256"
        }
      ],
      "name": "RentProduct",
      "outputs": [],
      "payable": true,
      "stateMutability": "payable",
      "type": "function"
    },
    {
      "constant": false,
      "inputs": [
        {
          "internalType": "uint256",
          "name": "delivery",
          "type": "uint256"
        }
      ],
      "name": "Delivered",
      "outputs": [],
      "payable": false,
      "stateMutability": "nonpayable",
      "type": "function"
    },
    {
      "constant": false,
      "inputs": [
        {
          "internalType": "uint256",
          "name": "pid",
          "type": "uint256"
        }
      ],
      "name": "MRpayment",
      "outputs": [],
      "payable": true,
      "stateMutability": "payable",
      "type": "function"
    },
    {
      "constant": false,
      "inputs": [
        {
          "internalType": "uint256",
          "name": "pid",
          "type": "uint256"
        }
      ],
      "name": "ReturnProduct",
      "outputs": [],
      "payable": false,
      "stateMutability": "nonpayable",
      "type": "function"
    },
    {
      "constant": false,
      "inputs": [
        {
          "internalType": "uint256",
          "name": "pid",
          "type": "uint256"
        }
      ],
      "name": "ReturnOnSameDay",
      "outputs": [],
      "payable": true,
      "stateMutability": "payable",
      "type": "function"
    },
    {
      "constant": false,
      "inputs": [
        {
          "internalType": "uint256",
          "name": "pid",
          "type": "uint256"
        }
      ],
      "name": "ReclaimProduct",
      "outputs": [],
      "payable": true,
      "stateMutability": "payable",
      "type": "function"
    },
    {
      "constant": true,
      "inputs": [],
      "name": "Get_Contract_Balance",
      "outputs": [
        {
          "internalType": "uint256",
          "name": "",
          "type": "uint256"
        }
      ],
      "payable": false,
      "stateMutability": "view",
      "type": "function"
    },
    {
      "constant": true,
      "inputs": [
        {
          "internalType": "address",
          "name": "user",
          "type": "address"
        }
      ],
      "name": "Get_Balance",
      "outputs": [
        {
          "internalType": "uint256",
          "name": "",
          "type": "uint256"
        }
      ],
      "payable": false,
      "stateMutability": "view",
      "type": "function"
    }
  ],
  "bytecode": "0x608060405266b1a2bc2ec5000060045534801561001b57600080fd5b5033600260006101000a81548173ffffffffffffffffffffffffffffffffffffffff021916908373ffffffffffffffffffffffffffffffffffffffff1602179055506136718061006c6000396000f3fe6080604052600436106100dd5760003560e01c8063ac7f4d981161007f578063cd76535611610059578063cd76535614610289578063e541e0c9146102cf578063fb5612b7146102eb578063fcc296b814610307576100dd565b8063ac7f4d9814610201578063b37f33dd1461022a578063c9d6cc661461026d576100dd565b80635a63fbc9116100bb5780635a63fbc9146101645780636cc98f3a1461018f5780637a05ef97146101ba5780639203765b146101d6576100dd565b806303c17a38146100e2578063451abb4e1461010b578063481ab5d614610148575b600080fd5b3480156100ee57600080fd5b5061010960048036036101049190810190612620565b610330565b005b34801561011757600080fd5b50610132600480360361012d9190810190612575565b610563565b60405161013f9190613495565b60405180910390f35b610162600480360361015d919081019061259e565b610584565b005b34801561017057600080fd5b50610179610ac7565b6040516101869190613033565b60405180910390f35b34801561019b57600080fd5b506101a4610aed565b6040516101b19190613495565b60405180910390f35b6101d460048036036101cf9190810190612620565b610b0c565b005b3480156101e257600080fd5b506101eb610da1565b6040516101f89190613495565b60405180910390f35b34801561020d57600080fd5b50610228600480360361022391908101906125df565b610da7565b005b34801561023657600080fd5b50610251600480360361024c9190810190612575565b610fbf565b604051610264979695949392919061304e565b60405180910390f35b61028760048036036102829190810190612620565b611158565b005b34801561029557600080fd5b506102b060048036036102ab9190810190612620565b611678565b6040516102c69a999897969594939291906130cb565b60405180910390f35b6102e960048036036102e49190810190612620565b611856565b005b61030560048036036103009190810190612620565b611b9d565b005b34801561031357600080fd5b5061032e60048036036103299190810190612620565b611e9b565b005b600115156000803373ffffffffffffffffffffffffffffffffffffffff1673ffffffffffffffffffffffffffffffffffffffff16815260200190815260200160002060030160029054906101000a900460ff161515146103c5576040517f08c379a00000000000000000000000000000000000000000000000000000000081526004016103bc90613275565b60405180910390fd5b3373ffffffffffffffffffffffffffffffffffffffff166001600083815260200190815260200160002060060160009054906101000a900473ffffffffffffffffffffffffffffffffffffffff1673ffffffffffffffffffffffffffffffffffffffff1614610469576040517f08c379a0000000000000000000000000000000000000000000000000000000008152600401610460906133f5565b60405180910390fd5b600115156001600083815260200190815260200160002060080160019054906101000a900460ff161515146104d3576040517f08c379a00000000000000000000000000000000000000000000000000000000081526004016104ca90613215565b60405180910390fd5b6228de80600160008381526020019081526020016000206007015401421115610531576040517f08c379a0000000000000000000000000000000000000000000000000000000008152600401610528906133d5565b60405180910390fd5b60006001600083815260200190815260200160002060080160016101000a81548160ff02191690831515021790555050565b60008173ffffffffffffffffffffffffffffffffffffffff16319050919050565b61058c6121e3565b6000803373ffffffffffffffffffffffffffffffffffffffff1673ffffffffffffffffffffffffffffffffffffffff1681526020019081526020016000206040518060e0016040529081600082018054600181600116156101000203166002900480601f01602080910402602001604051908101604052809291908181526020018280546001816001161561010002031660029004801561066e5780601f106106435761010080835404028352916020019161066e565b820191906000526020600020905b81548152906001019060200180831161065157829003601f168201915b50505050508152602001600182018054600181600116156101000203166002900480601f0160208091040260200160405190810160405280929190818152602001828054600181600116156101000203166002900480156107105780601f106106e557610100808354040283529160200191610710565b820191906000526020600020905b8154815290600101906020018083116106f357829003601f168201915b50505050508152602001600282015481526020016003820160009054906101000a900460ff161515151581526020016003820160019054906101000a900460ff161515151581526020016003820160029054906101000a900460ff161515151581526020016004820154815250509050806080015180156107965750600a8160c0015111155b6107d5576040517f08c379a00000000000000000000000000000000000000000000000000000000081526004016107cc906133b5565b60405180910390fd5b6004543414610819576040517f08c379a000000000000000000000000000000000000000000000000000000000815260040161081090613315565b60405180910390fd5b6002826040015102826060015114610866576040517f08c379a000000000000000000000000000000000000000000000000000000000815260040161085d90613335565b60405180910390fd5b600260009054906101000a900473ffffffffffffffffffffffffffffffffffffffff1673ffffffffffffffffffffffffffffffffffffffff166108fc349081150290604051600060405180830381858888f193505050501580156108ce573d6000803e3d6000fd5b50600354826080018181525050338260a0019073ffffffffffffffffffffffffffffffffffffffff16908173ffffffffffffffffffffffffffffffffffffffff16815250508160016000846080015181526020019081526020016000206000820151816000019080519060200190610947929190612226565b506020820151816001019080519060200190610964929190612226565b5060408201518160020155606082015181600301556080820151816004015560a08201518160050160006101000a81548173ffffffffffffffffffffffffffffffffffffffff021916908373ffffffffffffffffffffffffffffffffffffffff16021790555060c08201518160060160006101000a81548173ffffffffffffffffffffffffffffffffffffffff021916908373ffffffffffffffffffffffffffffffffffffffff16021790555060e082015181600701556101008201518160080160006101000a81548160ff0219169083151502179055506101208201518160080160016101000a81548160ff0219169083151502179055509050506000803373ffffffffffffffffffffffffffffffffffffffff1673ffffffffffffffffffffffffffffffffffffffff168152602001908152602001600020600401600081548092919060010191905055506003600081548092919060010191905055505050565b600260009054906101000a900473ffffffffffffffffffffffffffffffffffffffff1681565b60003073ffffffffffffffffffffffffffffffffffffffff1631905090565b600115156000803373ffffffffffffffffffffffffffffffffffffffff1673ffffffffffffffffffffffffffffffffffffffff16815260200190815260200160002060030160029054906101000a900460ff16151514610ba1576040517f08c379a0000000000000000000000000000000000000000000000000000000008152600401610b9890613475565b60405180910390fd5b670de0b6b3a7640000600160008381526020019081526020016000206003015402600454670de0b6b3a764000060016000858152602001908152602001600020600201540234030314610c29576040517f08c379a0000000000000000000000000000000000000000000000000000000008152600401610c2090613195565b60405180910390fd5b670de0b6b3a7640000600160008381526020019081526020016000206002015402600454670de0b6b3a764000060016000858152602001908152602001600020600301540234030314610cb1576040517f08c379a0000000000000000000000000000000000000000000000000000000008152600401610ca890613455565b60405180910390fd5b600015156001600083815260200190815260200160002060080160009054906101000a900460ff16151514610d1b576040517f08c379a0000000000000000000000000000000000000000000000000000000008152600401610d1290613375565b60405180910390fd5b600180600083815260200190815260200160002060080160006101000a81548160ff021916908315150217905550336001600083815260200190815260200160002060060160006101000a81548173ffffffffffffffffffffffffffffffffffffffff021916908373ffffffffffffffffffffffffffffffffffffffff16021790555050565b60035481565b600260009054906101000a900473ffffffffffffffffffffffffffffffffffffffff1673ffffffffffffffffffffffffffffffffffffffff163373ffffffffffffffffffffffffffffffffffffffff161415610e38576040517f08c379a0000000000000000000000000000000000000000000000000000000008152600401610e2f906132b5565b60405180910390fd5b8060a0015180610e49575080608001515b610e88576040517f08c379a0000000000000000000000000000000000000000000000000000000008152600401610e7f90613255565b60405180910390fd5b8060600151610ecc576040517f08c379a0000000000000000000000000000000000000000000000000000000008152600401610ec3906131b5565b60405180910390fd5b806000803373ffffffffffffffffffffffffffffffffffffffff1673ffffffffffffffffffffffffffffffffffffffff1681526020019081526020016000206000820151816000019080519060200190610f27929190612226565b506020820151816001019080519060200190610f44929190612226565b506040820151816002015560608201518160030160006101000a81548160ff02191690831515021790555060808201518160030160016101000a81548160ff02191690831515021790555060a08201518160030160026101000a81548160ff02191690831515021790555060c0820151816004015590505050565b6000602052806000526040600020600091509050806000018054600181600116156101000203166002900480601f01602080910402602001604051908101604052809291908181526020018280546001816001161561010002031660029004801561106b5780601f106110405761010080835404028352916020019161106b565b820191906000526020600020905b81548152906001019060200180831161104e57829003601f168201915b505050505090806001018054600181600116156101000203166002900480601f0160208091040260200160405190810160405280929190818152602001828054600181600116156101000203166002900480156111095780601f106110de57610100808354040283529160200191611109565b820191906000526020600020905b8154815290600101906020018083116110ec57829003601f168201915b5050505050908060020154908060030160009054906101000a900460ff16908060030160019054906101000a900460ff16908060030160029054906101000a900460ff16908060040154905087565b600115156000803373ffffffffffffffffffffffffffffffffffffffff1673ffffffffffffffffffffffffffffffffffffffff16815260200190815260200160002060030160019054906101000a900460ff161515146111ed576040517f08c379a00000000000000000000000000000000000000000000000000000000081526004016111e490613395565b60405180910390fd5b3373ffffffffffffffffffffffffffffffffffffffff166001600083815260200190815260200160002060050160009054906101000a900473ffffffffffffffffffffffffffffffffffffffff1673ffffffffffffffffffffffffffffffffffffffff1614611291576040517f08c379a0000000000000000000000000000000000000000000000000000000008152600401611288906131d5565b60405180910390fd5b600115156001600083815260200190815260200160002060080160009054906101000a900460ff161515146112fb576040517f08c379a00000000000000000000000000000000000000000000000000000000081526004016112f290613295565b60405180910390fd5b600060016000838152602001908152602001600020600701541415611355576040517f08c379a000000000000000000000000000000000000000000000000000000000815260040161134c90613355565b60405180910390fd5b600015156001600083815260200190815260200160002060080160019054906101000a900460ff1615151415611427576001600082815260200190815260200160002060060160009054906101000a900473ffffffffffffffffffffffffffffffffffffffff1673ffffffffffffffffffffffffffffffffffffffff166108fc670de0b6b3a76400006001600085815260200190815260200160002060030154029081150290604051600060405180830381858888f19350505050158015611421573d6000803e3d6000fd5b506115d4565b6001600082815260200190815260200160002060080160019054906101000a900460ff16801561147157506228de8060016000838152602001908152602001600020600701540142115b156115d3576001600082815260200190815260200160002060050160009054906101000a900473ffffffffffffffffffffffffffffffffffffffff1673ffffffffffffffffffffffffffffffffffffffff166108fc670de0b6b3a76400006001600085815260200190815260200160002060020154029081150290604051600060405180830381858888f19350505050158015611512573d6000803e3d6000fd5b506001600082815260200190815260200160002060060160009054906101000a900473ffffffffffffffffffffffffffffffffffffffff1673ffffffffffffffffffffffffffffffffffffffff166108fc670de0b6b3a7640000600160008581526020019081526020016000206002015402670de0b6b3a7640000600160008681526020019081526020016000206003015402039081150290604051600060405180830381858888f193505050501580156115d1573d6000803e3d6000fd5b505b5b60006001600083815260200190815260200160002060060160006101000a81548173ffffffffffffffffffffffffffffffffffffffff021916908373ffffffffffffffffffffffffffffffffffffffff16021790555060006001600083815260200190815260200160002060080160006101000a81548160ff0219169083151502179055506000600160008381526020019081526020016000206007018190555050565b6001602052806000526040600020600091509050806000018054600181600116156101000203166002900480601f0160208091040260200160405190810160405280929190818152602001828054600181600116156101000203166002900480156117245780601f106116f957610100808354040283529160200191611724565b820191906000526020600020905b81548152906001019060200180831161170757829003601f168201915b505050505090806001018054600181600116156101000203166002900480601f0160208091040260200160405190810160405280929190818152602001828054600181600116156101000203166002900480156117c25780601f10611797576101008083540402835291602001916117c2565b820191906000526020600020905b8154815290600101906020018083116117a557829003601f168201915b5050505050908060020154908060030154908060040154908060050160009054906101000a900473ffffffffffffffffffffffffffffffffffffffff16908060060160009054906101000a900473ffffffffffffffffffffffffffffffffffffffff16908060070154908060080160009054906101000a900460ff16908060080160019054906101000a900460ff1690508a565b600115156000803373ffffffffffffffffffffffffffffffffffffffff1673ffffffffffffffffffffffffffffffffffffffff16815260200190815260200160002060030160029054906101000a900460ff161515146118eb576040517f08c379a00000000000000000000000000000000000000000000000000000000081526004016118e290613275565b60405180910390fd5b3373ffffffffffffffffffffffffffffffffffffffff166001600083815260200190815260200160002060060160009054906101000a900473ffffffffffffffffffffffffffffffffffffffff1673ffffffffffffffffffffffffffffffffffffffff161461198f576040517f08c379a0000000000000000000000000000000000000000000000000000000008152600401611986906133f5565b60405180910390fd5b600015156001600083815260200190815260200160002060080160019054906101000a900460ff161515146119f9576040517f08c379a00000000000000000000000000000000000000000000000000000000081526004016119f090613175565b60405180910390fd5b6000600160008381526020019081526020016000206007015414611a52576040517f08c379a0000000000000000000000000000000000000000000000000000000008152600401611a49906132d5565b60405180910390fd5b6001600082815260200190815260200160002060060160009054906101000a900473ffffffffffffffffffffffffffffffffffffffff1673ffffffffffffffffffffffffffffffffffffffff166108fc600454670de0b6b3a7640000600160008681526020019081526020016000206002015402670de0b6b3a764000060016000878152602001908152602001600020600301540201019081150290604051600060405180830381858888f19350505050158015611b14573d6000803e3d6000fd5b5060006001600083815260200190815260200160002060060160006101000a81548173ffffffffffffffffffffffffffffffffffffffff021916908373ffffffffffffffffffffffffffffffffffffffff16021790555060006001600083815260200190815260200160002060080160006101000a81548160ff02191690831515021790555050565b600115156000803373ffffffffffffffffffffffffffffffffffffffff1673ffffffffffffffffffffffffffffffffffffffff16815260200190815260200160002060030160029054906101000a900460ff16151514611c32576040517f08c379a0000000000000000000000000000000000000000000000000000000008152600401611c2990613415565b60405180910390fd5b3373ffffffffffffffffffffffffffffffffffffffff166001600083815260200190815260200160002060060160009054906101000a900473ffffffffffffffffffffffffffffffffffffffff1673ffffffffffffffffffffffffffffffffffffffff1614611cd6576040517f08c379a0000000000000000000000000000000000000000000000000000000008152600401611ccd906133f5565b60405180910390fd5b670de0b6b3a76400006001600083815260200190815260200160002060020154023414611d38576040517f08c379a0000000000000000000000000000000000000000000000000000000008152600401611d2f906132f5565b60405180910390fd5b6228de80600160008381526020019081526020016000206007015401421115611d96576040517f08c379a0000000000000000000000000000000000000000000000000000000008152600401611d8d906133d5565b60405180910390fd5b600115156001600083815260200190815260200160002060080160019054906101000a900460ff16151514611e00576040517f08c379a0000000000000000000000000000000000000000000000000000000008152600401611df790613235565b60405180910390fd5b6001600082815260200190815260200160002060050160009054906101000a900473ffffffffffffffffffffffffffffffffffffffff1673ffffffffffffffffffffffffffffffffffffffff166108fc349081150290604051600060405180830381858888f19350505050158015611e7c573d6000803e3d6000fd5b5042600160008381526020019081526020016000206007018190555050565b600115156000803373ffffffffffffffffffffffffffffffffffffffff1673ffffffffffffffffffffffffffffffffffffffff16815260200190815260200160002060030160029054906101000a900460ff16151514611f30576040517f08c379a0000000000000000000000000000000000000000000000000000000008152600401611f27906131f5565b60405180910390fd5b3373ffffffffffffffffffffffffffffffffffffffff166001600083815260200190815260200160002060060160009054906101000a900473ffffffffffffffffffffffffffffffffffffffff1673ffffffffffffffffffffffffffffffffffffffff1614611fd4576040517f08c379a0000000000000000000000000000000000000000000000000000000008152600401611fcb906133f5565b60405180910390fd5b600015156001600083815260200190815260200160002060080160019054906101000a900460ff1615151461203e576040517f08c379a000000000000000000000000000000000000000000000000000000000815260040161203590613435565b60405180910390fd5b600180600083815260200190815260200160002060080160016101000a81548160ff0219169083151502179055506001600082815260200190815260200160002060050160009054906101000a900473ffffffffffffffffffffffffffffffffffffffff1673ffffffffffffffffffffffffffffffffffffffff166108fc670de0b6b3a76400006001600085815260200190815260200160002060020154029081150290604051600060405180830381858888f19350505050158015612108573d6000803e3d6000fd5b50600260009054906101000a900473ffffffffffffffffffffffffffffffffffffffff1673ffffffffffffffffffffffffffffffffffffffff166108fc6004549081150290604051600060405180830381858888f19350505050158015612173573d6000803e3d6000fd5b506000803373ffffffffffffffffffffffffffffffffffffffff1673ffffffffffffffffffffffffffffffffffffffff1681526020019081526020016000206004016000815480929190600101919050555042600160008381526020019081526020016000206007018190555050565b6040518060e00160405280606081526020016060815260200160008152602001600015158152602001600015158152602001600015158152602001600081525090565b828054600181600116156101000203166002900490600052602060002090601f016020900481019282601f1061226757805160ff1916838001178555612295565b82800160010185558215612295579182015b82811115612294578251825591602001919060010190612279565b5b5090506122a291906122a6565b5090565b6122c891905b808211156122c45760008160009055506001016122ac565b5090565b90565b6000813590506122da816135d2565b92915050565b6000813590506122ef816135e9565b92915050565b60008135905061230481613600565b92915050565b600082601f83011261231b57600080fd5b813561232e612329826134dd565b6134b0565b9150808252602083016020830185838301111561234a57600080fd5b61235583828461357f565b50505092915050565b6000610140828403121561237157600080fd5b61237c6101406134b0565b9050600082013567ffffffffffffffff81111561239857600080fd5b6123a48482850161230a565b600083015250602082013567ffffffffffffffff8111156123c457600080fd5b6123d08482850161230a565b60208301525060406123e484828501612560565b60408301525060606123f884828501612560565b606083015250608061240c84828501612560565b60808301525060a0612420848285016122e0565b60a08301525060c0612434848285016122e0565b60c08301525060e061244884828501612560565b60e08301525061010061245d848285016122f5565b61010083015250610120612473848285016122f5565b6101208301525092915050565b600060e0828403121561249257600080fd5b61249c60e06134b0565b9050600082013567ffffffffffffffff8111156124b857600080fd5b6124c48482850161230a565b600083015250602082013567ffffffffffffffff8111156124e457600080fd5b6124f08482850161230a565b602083015250604061250484828501612560565b6040830152506060612518848285016122f5565b606083015250608061252c848285016122f5565b60808301525060a0612540848285016122f5565b60a08301525060c061255484828501612560565b60c08301525092915050565b60008135905061256f81613617565b92915050565b60006020828403121561258757600080fd5b6000612595848285016122cb565b91505092915050565b6000602082840312156125b057600080fd5b600082013567ffffffffffffffff8111156125ca57600080fd5b6125d68482850161235e565b91505092915050565b6000602082840312156125f157600080fd5b600082013567ffffffffffffffff81111561260b57600080fd5b61261784828501612480565b91505092915050565b60006020828403121561263257600080fd5b600061264084828501612560565b91505092915050565b61265281613537565b82525050565b61266181613549565b82525050565b600061267282613509565b61267c8185613514565b935061268c81856020860161358e565b612695816135c1565b840191505092915050565b60006126ad601c83613514565b91507f596f7520686176652072656e74656420746869732070726f64756374000000006000830152602082019050919050565b60006126ed603983613514565b91507f526571756972656420746f20506179204465706f736974202b204d6f6e74686c60008301527f7952656e74616c202b20302e303520436f6d6d697373696f6e000000000000006020830152604082019050919050565b6000612753601c83613514565b91507f557365722073686f756c64206265204b594320436f6d706c61696e74000000006000830152602082019050919050565b6000612793602c83613514565b91507f546869732052656e746f72206973206e6f7420746865204f776e6572206f662060008301527f746869732050726f6475637400000000000000000000000000000000000000006020830152604082019050919050565b60006127f9603f83613514565b91507f4f6e6c792052656e7465652063616e2061636365737320746869732066756e6360008301527f74696f6e20746f20736574207468652044656c697665727920537461747573006020830152604082019050919050565b600061285f603783613514565b91507f596f752068617665206d61726b656420746f2072657475726e2074686520707260008301527f6f64756374206f72206e6f74207965742072656e7465640000000000000000006020830152604082019050919050565b60006128c5602583613514565b91507f596f752068617665206d61726b656420746f2072657475726e2074686520707260008301527f6f647563740000000000000000000000000000000000000000000000000000006020830152604082019050919050565b600061292b601e83613514565b91507f506c656173652073656c6563742061746c65617374206f6e6520726f6c6500006000830152602082019050919050565b600061296b602683613514565b91507f4f6e6c792052656e7465652063616e20706c616365207468652052657475726e60008301527f206f7264657200000000000000000000000000000000000000000000000000006020830152604082019050919050565b60006129d1602583613514565b91507f546869732050726f647563742068617665206e6f74206265656e2072656e746560008301527f64207965740000000000000000000000000000000000000000000000000000006020830152604082019050919050565b6000612a37602883613514565b91507f436f6e74726163744f776e65722063616e7420626520612052656e746f72206f60008301527f722052656e7465650000000000000000000000000000000000000000000000006020830152604082019050919050565b6000612a9d602783613514565b91507f50726f647563742069732044656c69766572656420616e642052656e74616c2060008301527f73746172746564000000000000000000000000000000000000000000000000006020830152604082019050919050565b6000612b03602e83613514565b91507f56616c7565206e6f7420657175616c20746f20746865204d6f6e74686c79526560008301527f6e74616c2076616c7565207365740000000000000000000000000000000000006020830152604082019050919050565b6000612b69604a83613514565b91507f52656e746f7220726571756972656420746f2070617920302e303520636f6d6d60008301527f697373696f6e20746f2061646420656163682070726f6475637420746f20746860208301527f6520636f6e7472616374000000000000000000000000000000000000000000006040830152606082019050919050565b6000612bf5603683613514565b91507f4465706f7369742073686f756c6420616c77617973206265207477696365207460008301527f6865204d6f6e74686c7952656e74616c2076616c7565000000000000000000006020830152604082019050919050565b6000612c5b602b83613514565b91507f546869732070726f64756374206973206e6f742064656c69766572656420746f60008301527f2052656e746565207965740000000000000000000000000000000000000000006020830152604082019050919050565b6000612cc1601983613514565b91507f50726f647563742069732072656e74656420616c7265616479000000000000006000830152602082019050919050565b6000612d01602683613514565b91507f4f6e6c792052656e746f722063616e20616363657373205265636c61696d205060008301527f726f6475637400000000000000000000000000000000000000000000000000006020830152604082019050919050565b6000612d67604f83613514565b91507f52656e746f72206973206e6f7420616464696e67207468652070726f6475637460008301527f206f72205573657220697320747279696e6720746f20616464206d6f7265207460208301527f68616e2031302070726f647563747300000000000000000000000000000000006040830152606082019050919050565b6000612df3603f83613514565b91507f5061796d656e74206761746577617920636c6f736564202c204d6f6e74686c7960008301527f52656e74616c2077696c6c206265206375742066726f6d204465706f736974006020830152604082019050919050565b6000612e59602b83613514565b91507f546869732052656e74656520646f65736e74206861766520746869732070726f60008301527f647563742072656e7465640000000000000000000000000000000000000000006020830152604082019050919050565b6000612ebf601c83613514565b91507f4f6e6c792052656e7465652063616e206d616b65207061796d656e74000000006000830152602082019050919050565b6000612eff605083613514565b91507f596f752068617665206d61726b656420746f2072657475726e2074686520707260008301527f6f647563742f416c72656164792044656c6976657265642f52656e746564206260208301527f7920736f6d656f746865722075736572000000000000000000000000000000006040830152606082019050919050565b6000612f8b601f83613514565b91507f456e7465722076616c6964204d6f6e74686c7952656e74616c2076616c7565006000830152602082019050919050565b6000612fcb602483613514565b91507f4f6e6c792072656e7465652063616e2061636365737320746869732066756e6360008301527f74696f6e000000000000000000000000000000000000000000000000000000006020830152604082019050919050565b61302d81613575565b82525050565b60006020820190506130486000830184612649565b92915050565b600060e0820190508181036000830152613068818a612667565b9050818103602083015261307c8189612667565b905061308b6040830188613024565b6130986060830187612658565b6130a56080830186612658565b6130b260a0830185612658565b6130bf60c0830184613024565b98975050505050505050565b60006101408201905081810360008301526130e6818d612667565b905081810360208301526130fa818c612667565b9050613109604083018b613024565b613116606083018a613024565b6131236080830189613024565b61313060a0830188612649565b61313d60c0830187612649565b61314a60e0830186613024565b613158610100830185612658565b613166610120830184612658565b9b9a5050505050505050505050565b6000602082019050818103600083015261318e816126a0565b9050919050565b600060208201905081810360008301526131ae816126e0565b9050919050565b600060208201905081810360008301526131ce81612746565b9050919050565b600060208201905081810360008301526131ee81612786565b9050919050565b6000602082019050818103600083015261320e816127ec565b9050919050565b6000602082019050818103600083015261322e81612852565b9050919050565b6000602082019050818103600083015261324e816128b8565b9050919050565b6000602082019050818103600083015261326e8161291e565b9050919050565b6000602082019050818103600083015261328e8161295e565b9050919050565b600060208201905081810360008301526132ae816129c4565b9050919050565b600060208201905081810360008301526132ce81612a2a565b9050919050565b600060208201905081810360008301526132ee81612a90565b9050919050565b6000602082019050818103600083015261330e81612af6565b9050919050565b6000602082019050818103600083015261332e81612b5c565b9050919050565b6000602082019050818103600083015261334e81612be8565b9050919050565b6000602082019050818103600083015261336e81612c4e565b9050919050565b6000602082019050818103600083015261338e81612cb4565b9050919050565b600060208201905081810360008301526133ae81612cf4565b9050919050565b600060208201905081810360008301526133ce81612d5a565b9050919050565b600060208201905081810360008301526133ee81612de6565b9050919050565b6000602082019050818103600083015261340e81612e4c565b9050919050565b6000602082019050818103600083015261342e81612eb2565b9050919050565b6000602082019050818103600083015261344e81612ef2565b9050919050565b6000602082019050818103600083015261346e81612f7e565b9050919050565b6000602082019050818103600083015261348e81612fbe565b9050919050565b60006020820190506134aa6000830184613024565b92915050565b6000604051905081810181811067ffffffffffffffff821117156134d357600080fd5b8060405250919050565b600067ffffffffffffffff8211156134f457600080fd5b601f19601f8301169050602081019050919050565b600081519050919050565b600082825260208201905092915050565b600061353082613555565b9050919050565b600061354282613555565b9050919050565b60008115159050919050565b600073ffffffffffffffffffffffffffffffffffffffff82169050919050565b6000819050919050565b82818337600083830152505050565b60005b838110156135ac578082015181840152602081019050613591565b838111156135bb576000848401525b50505050565b6000601f19601f8301169050919050565b6135db81613525565b81146135e657600080fd5b50565b6135f281613537565b81146135fd57600080fd5b50565b61360981613549565b811461361457600080fd5b50565b61362081613575565b811461362b57600080fd5b5056fea365627a7a723158205e04b649d1801288168a54581b9c7d5591d457cac9128c30b7f29256c6afb7766c6578706572696d656e74616cf564736f6c634300050c0040",
  "source": "pragma solidity >=0.4.21 <0.7.0;\r\npragma experimental ABIEncoderV2;\r\ncontract AppUser {\r\n    \r\n    struct User {\r\n        string Name;\r\n        string Address;\r\n        uint PhoneNumber;\r\n        bool kyc;\r\n        bool Rentor ;\r\n        bool Rentee;\r\n        uint NoOfProducts ;\r\n    }\r\n    \r\n    struct Product {\r\n        string ProductName;\r\n        string ProductDescription;\r\n        uint MonthlyRental;\r\n        uint Deposit;\r\n        uint ID;\r\n        address payable POwner;\r\n        address payable renterAddress;\r\n        uint start_time;\r\n        bool status;\r\n        bool isDelivered;\r\n    }\r\n    mapping(address=>User) public UserD;\r\n    mapping(uint=>Product) public PD;\r\n    \r\n    address payable public ContractOwner;\r\n    uint public ProductID;\r\n    uint private Commission = 50000000000000000;\r\n\r\n    constructor() public {\r\n        ContractOwner = msg.sender;\r\n    }\r\n    \r\n    function Register (User memory user1) public {\r\n        require(msg.sender!=ContractOwner,\"ContractOwner cant be a Rentor or Rentee\");\r\n        require((user1.Rentee || user1.Rentor),'Please select atleast one role');\r\n        require(user1.kyc, 'User should be KYC Complaint');\r\n        UserD[msg.sender] = user1;\r\n    }\r\n    \r\n    function AddProduct (Product memory Product1) public payable {\r\n        User memory user = UserD[msg.sender];\r\n        require(user.Rentor && user.NoOfProducts <= 10, 'Rentor is not adding the product or User is trying to add more than 10 products');\r\n        require(msg.value == Commission,'Rentor required to pay 0.05 commission to add each product to the contract');\r\n        require(Product1.Deposit == Product1.MonthlyRental*2,'Deposit should always be twice the MonthlyRental value');\r\n        ContractOwner.transfer(msg.value);\r\n        Product1.ID = ProductID;\r\n        Product1.POwner = msg.sender;\r\n        PD[Product1.ID] = Product1;\r\n        UserD[msg.sender].NoOfProducts++;\r\n        ProductID++;\r\n    }\r\n    \r\n    function RentProduct(uint pid) public payable {\r\n        require(UserD[msg.sender].Rentee == true,'Only rentee can access this function');\r\n        require(msg.value - PD[pid].MonthlyRental*10**18 - Commission  == PD[pid].Deposit*10**18, 'Required to Pay Deposit + MonthlyRental + 0.05 Commission');\r\n        //50000000000000000 - commission to ContractOwner\r\n        require(msg.value - (PD[pid].Deposit*10**18) - Commission == PD[pid].MonthlyRental*10**18, 'Enter valid MonthlyRental value');\r\n        require(PD[pid].status == false, 'Product is rented already');\r\n        PD[pid].status = true;\r\n        PD[pid].renterAddress = msg.sender;\r\n        // event to notify rentor to send the product to rentee\r\n    }\r\n    \r\n    function Delivered(uint delivery) public  {\r\n        require(UserD[msg.sender].Rentee == true, 'Only Rentee can access this function to set the Delivery Status');\r\n        require(PD[delivery].renterAddress == msg.sender,'This Rentee doesnt have this product rented');\r\n        require(PD[delivery].isDelivered == false,'You have marked to return the product/Already Delivered/Rented by someother user');\r\n        PD[delivery].isDelivered = true;\r\n        PD[delivery].POwner.transfer(PD[delivery].MonthlyRental * (10**18)); //transfer of MR to Rentor\r\n        ContractOwner.transfer(Commission); // transfer of commission to ContractOwner\r\n        UserD[msg.sender].NoOfProducts++;\r\n        PD[delivery].start_time = now;\r\n\r\n    }\r\n\r\n    function MRpayment(uint pid) public payable {\r\n        require(UserD[msg.sender].Rentee == true,'Only Rentee can make payment');\r\n        require(PD[pid].renterAddress == msg.sender,'This Rentee doesnt have this product rented');\r\n        require(msg.value == PD[pid].MonthlyRental*10**18,'Value not equal to the MonthlyRental value set');\r\n        require(now <= PD[pid].start_time + (3600 * 24 * 31),'Payment gateway closed , MonthlyRental will be cut from Deposit');\r\n        require(PD[pid].isDelivered == true,'You have marked to return the product');\r\n        PD[pid].POwner.transfer(msg.value);\r\n        PD[pid].start_time = now;\r\n    }\r\n    \r\n    function ReturnProduct(uint pid) public {\r\n        require(UserD[msg.sender].Rentee == true,'Only Rentee can place the Return order');\r\n        require(PD[pid].renterAddress == msg.sender,'This Rentee doesnt have this product rented');\r\n        require(PD[pid].isDelivered == true,'You have marked to return the product or not yet rented');\r\n        require(now <= PD[pid].start_time + (3600 * 24 * 31),'Payment gateway closed , MonthlyRental will be cut from Deposit');\r\n        PD[pid].isDelivered = false;\r\n    }\r\n    \r\n    function ReturnOnSameDay(uint pid) public payable {\r\n        require(UserD[msg.sender].Rentee == true,'Only Rentee can place the Return order');\r\n        require(PD[pid].renterAddress == msg.sender,'This Rentee doesnt have this product rented');\r\n        require(PD[pid].isDelivered == false,'You have rented this product');\r\n        require(PD[pid].start_time == 0,'Product is Delivered and Rental started');\r\n        PD[pid].renterAddress.transfer((PD[pid].Deposit*10**18 + (PD[pid].MonthlyRental)*10**18) + Commission);\r\n        PD[pid].renterAddress = 0x0000000000000000000000000000000000000000;\r\n        PD[pid].status = false;\r\n    }\r\n    \r\n    function ReclaimProduct(uint pid) public payable {\r\n        require(UserD[msg.sender].Rentor == true,'Only Rentor can access Reclaim Product');\r\n        require(PD[pid].POwner == msg.sender, 'This Rentor is not the Owner of this Product');\r\n        require(PD[pid].status == true,'This Product have not been rented yet');\r\n        require(PD[pid].start_time != 0,'This product is not delivered to Rentee yet');\r\n        if(PD[pid].isDelivered == false) {\r\n            PD[pid].renterAddress.transfer(PD[pid].Deposit*10**18);\r\n        } else if(( PD[pid].isDelivered && now > PD[pid].start_time + (3600 * 24 * 31)) ) {\r\n            PD[pid].POwner.transfer(PD[pid].MonthlyRental*10**18);\r\n            PD[pid].renterAddress.transfer(PD[pid].Deposit*10**18-PD[pid].MonthlyRental*10**18);\r\n         }\r\n         PD[pid].renterAddress = 0x0000000000000000000000000000000000000000;\r\n            PD[pid].status = false;\r\n            PD[pid].start_time = 0;\r\n    }\r\n    \r\n    function Get_Contract_Balance() public view returns(uint){\r\n        return address(this).balance;\r\n    }\r\n    \r\n    function Get_Balance(address user) public view returns(uint){\r\n        return user.balance;\r\n    }\r\n    \r\n//     receive() external payable  //fallback function\r\n//     {\r\n      \r\n//     }\r\n   \r\n//   //selfdestruct function\r\n//     function kill() public {\r\n//        require (msg.sender == ContractOwner,\"ContractOwner only can access selfdestruct feature\");\r\n//        selfdestruct(ContractOwner); \r\n//     }\r\n\r\n}\r\n\r\n\r\n\r\n// function DefaulterList() public returns (address[] memory) {\r\n    //     require(UserD[msg.sender].Rentor == true,'Only Rentor can access this function');\r\n    //     // address [] memory defaulterList;\r\n    //     for(uint i = 0 ; i < ProductID; i++) {\r\n    //         if(PD[i].POwner == msg.sender) {\r\n    //             if(now >= PD[i].start_time + (3600 * 24 * 31)) {\r\n    //                 defaulterList[i] = ((PD[i].renterAddress));\r\n    //             }\r\n    //         }\r\n    //     }\r\n    //     return defaulterList;\r\n    // }\r\n    // // Event - Rentor to view the defaulterList\r\n    \r\n    // function ReturnersList() public returns (address[] memory) {\r\n    //     require(UserD[msg.sender].Rentor == true,'Only Rentor can access this function');\r\n    //     //address [] memory returnersList;\r\n    //     for(uint i = 0 ; i < ProductID; i++) {\r\n    //         if(PD[i].POwner == msg.sender) {\r\n    //             if(now <= PD[i].start_time + (3600 * 24 * 31) && PD[i].isDelivered == false) {\r\n    //                 returnersList[i] = ((PD[i].renterAddress));\r\n    //             }\r\n    //         }\r\n    //     }\r\n    //    return returnersList;\r\n    //}\r\n    // Event - Rentor to view the ReturnersList",
  "sourcePath": "C:/Ethereum/EthereumProject/contracts/Electros4All.sol",
  "compiler": {
    "name": "solc",
    "version": "0.5.12+commit.7709ece9.Emscripten.clang"
  },
  "schemaVersion": "3.0.20",
  "updatedAt": "2020-03-08T10:12:17.122Z",
  "devdoc": {
    "methods": {}
  },
  "userdoc": {
    "methods": {}
  }
}